:100CEC0000000000000000000001000200030004EE
:100C9E000F08456E7465722050617373776F7264BE
:100CAE00000E174163636573732044656E69656456
:100CBE00000F25416363657373204772616E74651F
:020CCE006400C0
:100BD4007FE07E93120C027F3F7E42120C027F3F25
:100BE4007E42120C027F3F7E42120C027F3F7E4205
:0E0BF400120C027F3F7E42120C027F3F7E42B7
:100C0200E4FDFCD3ED9FEC9E50070DBD00010C806E
:0F0C1200F2E4FFFE0FBF00010EBE03F8BFE9F5CD
:010C210022B0
:100C6A007FB87E0B120C027F307E00120C837FB895
:090C7A007E0B120C027F307E009B
:100C83008F90C2B7C2B5C2B67FB87E0B120C02D228
:0B0C9300B67FB87E0B120C02C2B62226
:100CD1008F90C2B7D2B5C2B67FB87E0B120C02D2CA
:0B0CE100B67FB87E0B120C02C2B622D8
:100C2200120C7F120C6A120C6A7FB87E0B120C0235
:100C32007F387E00120C837FB87E0B120C027F017C
:100C42007E00120C837FB87E0B120C027F0F7E0097
:100C5200120C837FB87E0B120C027F807E00120C76
:080C6200837FB87E0B020C0237
:10093200E4FFFE7D61ED64737003020A51C2A0D22E
:10094200A1D2A2D2A320A5117F2A120CD17F207E90
:100952004E120C027E007F012220A6117F2A120C69
:10096200D17F207E4E120C027E007F022220A71130
:100972007F2A120CD17F207E4E120C027E007F0352
:1009820022D2A0C2A1D2A2D2A320A5117F2A120CE8
:10099200D17F207E4E120C027E007F042220A611FF
:1009A2007F2A120CD17F207E4E120C027E007F0520
:1009B2002220A7117F2A120CD17F207E4E120C0218
:1009C2007E007F0622D2A0D2A1C2A2D2A320A5116C
:1009D2007F2A120CD17F207E4E120C027E007F07EE
:1009E2002220A6117F2A120CD17F207E4E120C02E9
:1009F2007E007F082220A7117F2A120CD17F207E41
:100A02004E120C027E007F0922D2A0D2A1D2A2C233
:100A1200A320A5117F2A120CD17F207E4E120C0238
:100A22007E007F0A2220A6117F2A120CD17F207E0F
:100A32004E120C027E007F0B2230A7030209377F81
:0F0A42002A120CD17F207E4E120C027E007F0CF8
:010A51002282
:10080000E4F534F535F536F53778387C00FD7BFFB7
:100810007A0C79ECFE7F08120B22E4F540F5417862
:10082000427C00FD7BFF7A0C79F4FE7F08120B22DC
:10083000E4F59075A0F0F5B07580F0120C227F0100
:100840007E00120C837F807E00120C83E4F540F55D
:100850004174082541F8E6FF600D120CD10541E511
:100860004170EE054080EA7FC07E00120C83E4F503
:1008700040F541120932E54125E02438F8A6060882
:10088000A6070541E54170020540C39404E5409484
:100890000040E07F017E00120C83E4F540F541AF9B
:1008A00041EF25E02442F8E6FC08E6FDEF25E024D0
:1008B00038F8E6FE08E66D7002EE6C6006753400EE
:1008C0007535010541E541700205406404454070FD
:1008D000CEE5354534703DF540F541D280C28112F8
:1008E0000BD4D280D28174252541F8E6FF600D1229
:1008F0000CD10541E54170EE054080EA7F3F7E4224
:10090000120BD8120BF0C280D281120BD4D280D23B
:100910008102083EE4F540F54174172541F8E6FFF1
:10092000700302083E120CD10541E54170EB054011
:0209300080E75E
:03000000020B48A8
:0C0B4800787FE4F6D8FD758149020B8F20
:100A5200E709F608DFFA8046E709F208DFFA803E86
:100A620088828C83E709F0A3DFFA8032E309F60873
:100A7200DFFA8078E309F208DFFA807088828C83DB
:100A8200E309F0A3DFFA806489828A83E0A3F6088F
:100A9200DFFA805889828A83E0A3F208DFFA804C69
:100AA20080D280FA80C680D4806980F28033801040
:100AB20080A680EA809A80A880DA80E280CA8033A9
:100AC20089828A83ECFAE493A3C8C582C8CCC58321
:100AD200CCF0A3C8C582C8CCC583CCDFE9DEE780F1
:100AE2000D89828A83E493A3F608DFF9ECFAA9F070
:100AF200EDFB2289828A83ECFAE0A3C8C582C8CCC6
:100B0200C583CCF0A3C8C582C8CCC583CCDFEADEDE
:100B1200E880DB89828A83E493A3F208DFF980CC40
:100B220088F0EF60010E4E60C388F0ED2402B40439
:100B32000050B9F582EB2402B4040050AF232345E0
:060B42008223900AA27359
:100B5400020800E493A3F8E493A34003F68001F2AF
:100B640008DFF48029E493A3F85407240CC8C333A2
:100B7400C4540F4420C8834004F456800146F6DF71
:100B8400E4800B0102040810204080900C9EE47E57
:100B9400019360BCA3FF543F30E509541FFEE49366
:100BA400A360010ECF54C025E060A840B8E493A32D
:100BB400FAE493A3F8E493A3C8C582C8CAC583CA58
:100BC400F0A3C8C582C8CAC583CADFE9DEE780BE10
:010CD0000023
:00000001FF
